{
  "_format": "hh3-artifact-1",
  "contractName": "VaultAssetShield",
  "sourceName": "contracts/VaultAssetShield.sol",
  "abi": [
    {
      "inputs": [
        {
          "internalType": "address",
          "name": "_verifier",
          "type": "address"
        },
        {
          "internalType": "address",
          "name": "_riskAssessor",
          "type": "address"
        }
      ],
      "stateMutability": "nonpayable",
      "type": "constructor"
    },
    {
      "anonymous": false,
      "inputs": [
        {
          "indexed": true,
          "internalType": "uint256",
          "name": "assetId",
          "type": "uint256"
        },
        {
          "indexed": true,
          "internalType": "address",
          "name": "owner",
          "type": "address"
        },
        {
          "indexed": false,
          "internalType": "string",
          "name": "name",
          "type": "string"
        }
      ],
      "name": "AssetCreated",
      "type": "event"
    },
    {
      "anonymous": false,
      "inputs": [
        {
          "indexed": true,
          "internalType": "uint256",
          "name": "assetId",
          "type": "uint256"
        },
        {
          "indexed": false,
          "internalType": "bool",
          "name": "isVerified",
          "type": "bool"
        }
      ],
      "name": "AssetVerified",
      "type": "event"
    },
    {
      "anonymous": false,
      "inputs": [
        {
          "indexed": true,
          "internalType": "address",
          "name": "investor",
          "type": "address"
        },
        {
          "indexed": true,
          "internalType": "uint256",
          "name": "assetId",
          "type": "uint256"
        },
        {
          "indexed": false,
          "internalType": "uint256",
          "name": "amount",
          "type": "uint256"
        },
        {
          "indexed": false,
          "internalType": "uint256",
          "name": "apy",
          "type": "uint256"
        }
      ],
      "name": "InvestmentMade",
      "type": "event"
    },
    {
      "anonymous": false,
      "inputs": [
        {
          "indexed": true,
          "internalType": "address",
          "name": "investor",
          "type": "address"
        },
        {
          "indexed": true,
          "internalType": "uint256",
          "name": "assetId",
          "type": "uint256"
        },
        {
          "indexed": false,
          "internalType": "uint256",
          "name": "principal",
          "type": "uint256"
        },
        {
          "indexed": false,
          "internalType": "uint256",
          "name": "earnings",
          "type": "uint256"
        }
      ],
      "name": "InvestmentWithdrawn",
      "type": "event"
    },
    {
      "anonymous": false,
      "inputs": [
        {
          "indexed": true,
          "internalType": "uint256",
          "name": "portfolioId",
          "type": "uint256"
        },
        {
          "indexed": true,
          "internalType": "address",
          "name": "owner",
          "type": "address"
        },
        {
          "indexed": false,
          "internalType": "string",
          "name": "name",
          "type": "string"
        }
      ],
      "name": "PortfolioCreated",
      "type": "event"
    },
    {
      "anonymous": false,
      "inputs": [
        {
          "indexed": true,
          "internalType": "uint256",
          "name": "portfolioId",
          "type": "uint256"
        },
        {
          "indexed": false,
          "internalType": "bool",
          "name": "isVerified",
          "type": "bool"
        }
      ],
      "name": "PortfolioVerified",
      "type": "event"
    },
    {
      "anonymous": false,
      "inputs": [
        {
          "indexed": true,
          "internalType": "address",
          "name": "user",
          "type": "address"
        },
        {
          "indexed": false,
          "internalType": "uint32",
          "name": "reputation",
          "type": "uint32"
        }
      ],
      "name": "ReputationUpdated",
      "type": "event"
    },
    {
      "anonymous": false,
      "inputs": [
        {
          "indexed": true,
          "internalType": "uint256",
          "name": "assetId",
          "type": "uint256"
        },
        {
          "indexed": false,
          "internalType": "uint32",
          "name": "riskScore",
          "type": "uint32"
        }
      ],
      "name": "RiskAssessmentUpdated",
      "type": "event"
    },
    {
      "anonymous": false,
      "inputs": [
        {
          "indexed": true,
          "internalType": "uint256",
          "name": "transactionId",
          "type": "uint256"
        },
        {
          "indexed": true,
          "internalType": "address",
          "name": "from",
          "type": "address"
        },
        {
          "indexed": true,
          "internalType": "address",
          "name": "to",
          "type": "address"
        },
        {
          "indexed": false,
          "internalType": "uint8",
          "name": "transactionType",
          "type": "uint8"
        }
      ],
      "name": "TransactionExecuted",
      "type": "event"
    },
    {
      "inputs": [
        {
          "internalType": "uint256",
          "name": "_portfolioId",
          "type": "uint256"
        },
        {
          "internalType": "uint256",
          "name": "_assetId",
          "type": "uint256"
        },
        {
          "internalType": "uint256",
          "name": "quantity",
          "type": "uint256"
        }
      ],
      "name": "addAssetToPortfolio",
      "outputs": [],
      "stateMutability": "nonpayable",
      "type": "function"
    },
    {
      "inputs": [
        {
          "internalType": "uint256",
          "name": "_assetId",
          "type": "uint256"
        },
        {
          "internalType": "uint32",
          "name": "riskScore",
          "type": "uint32"
        },
        {
          "internalType": "uint32",
          "name": "volatility",
          "type": "uint32"
        },
        {
          "internalType": "uint32",
          "name": "liquidity",
          "type": "uint32"
        },
        {
          "internalType": "string",
          "name": "_assessmentHash",
          "type": "string"
        }
      ],
      "name": "assessRisk",
      "outputs": [
        {
          "internalType": "uint256",
          "name": "",
          "type": "uint256"
        }
      ],
      "stateMutability": "nonpayable",
      "type": "function"
    },
    {
      "inputs": [
        {
          "internalType": "uint256",
          "name": "",
          "type": "uint256"
        }
      ],
      "name": "assetAPY",
      "outputs": [
        {
          "internalType": "uint256",
          "name": "",
          "type": "uint256"
        }
      ],
      "stateMutability": "view",
      "type": "function"
    },
    {
      "inputs": [],
      "name": "assetCounter",
      "outputs": [
        {
          "internalType": "uint256",
          "name": "",
          "type": "uint256"
        }
      ],
      "stateMutability": "view",
      "type": "function"
    },
    {
      "inputs": [
        {
          "internalType": "uint256",
          "name": "",
          "type": "uint256"
        }
      ],
      "name": "assets",
      "outputs": [
        {
          "internalType": "uint32",
          "name": "assetId",
          "type": "uint32"
        },
        {
          "internalType": "uint256",
          "name": "value",
          "type": "uint256"
        },
        {
          "internalType": "uint256",
          "name": "quantity",
          "type": "uint256"
        },
        {
          "internalType": "uint8",
          "name": "assetType",
          "type": "uint8"
        },
        {
          "internalType": "bool",
          "name": "isActive",
          "type": "bool"
        },
        {
          "internalType": "bool",
          "name": "isVerified",
          "type": "bool"
        },
        {
          "internalType": "string",
          "name": "name",
          "type": "string"
        },
        {
          "internalType": "string",
          "name": "description",
          "type": "string"
        },
        {
          "internalType": "string",
          "name": "metadataHash",
          "type": "string"
        },
        {
          "internalType": "address",
          "name": "owner",
          "type": "address"
        },
        {
          "internalType": "uint256",
          "name": "createdAt",
          "type": "uint256"
        },
        {
          "internalType": "uint256",
          "name": "updatedAt",
          "type": "uint256"
        }
      ],
      "stateMutability": "view",
      "type": "function"
    },
    {
      "inputs": [
        {
          "internalType": "address",
          "name": "_user",
          "type": "address"
        },
        {
          "internalType": "uint256",
          "name": "_assetId",
          "type": "uint256"
        }
      ],
      "name": "calculateEarnings",
      "outputs": [
        {
          "internalType": "uint256",
          "name": "",
          "type": "uint256"
        }
      ],
      "stateMutability": "view",
      "type": "function"
    },
    {
      "inputs": [
        {
          "internalType": "string",
          "name": "_name",
          "type": "string"
        },
        {
          "internalType": "string",
          "name": "_description",
          "type": "string"
        },
        {
          "internalType": "uint256",
          "name": "_value",
          "type": "uint256"
        },
        {
          "internalType": "uint256",
          "name": "_quantity",
          "type": "uint256"
        },
        {
          "internalType": "uint8",
          "name": "_assetType",
          "type": "uint8"
        },
        {
          "internalType": "string",
          "name": "_metadataHash",
          "type": "string"
        }
      ],
      "name": "createAsset",
      "outputs": [
        {
          "internalType": "uint256",
          "name": "",
          "type": "uint256"
        }
      ],
      "stateMutability": "nonpayable",
      "type": "function"
    },
    {
      "inputs": [
        {
          "internalType": "string",
          "name": "_name",
          "type": "string"
        },
        {
          "internalType": "string",
          "name": "_description",
          "type": "string"
        },
        {
          "internalType": "bool",
          "name": "_isPublic",
          "type": "bool"
        }
      ],
      "name": "createPortfolio",
      "outputs": [
        {
          "internalType": "uint256",
          "name": "",
          "type": "uint256"
        }
      ],
      "stateMutability": "nonpayable",
      "type": "function"
    },
    {
      "inputs": [
        {
          "internalType": "uint256",
          "name": "_fromAssetId",
          "type": "uint256"
        },
        {
          "internalType": "uint256",
          "name": "_toAssetId",
          "type": "uint256"
        },
        {
          "internalType": "uint256",
          "name": "amount",
          "type": "uint256"
        },
        {
          "internalType": "uint8",
          "name": "_transactionType",
          "type": "uint8"
        },
        {
          "internalType": "string",
          "name": "_description",
          "type": "string"
        }
      ],
      "name": "executeTransaction",
      "outputs": [
        {
          "internalType": "uint256",
          "name": "",
          "type": "uint256"
        }
      ],
      "stateMutability": "nonpayable",
      "type": "function"
    },
    {
      "inputs": [],
      "name": "getAssetCount",
      "outputs": [
        {
          "internalType": "uint256",
          "name": "",
          "type": "uint256"
        }
      ],
      "stateMutability": "view",
      "type": "function"
    },
    {
      "inputs": [
        {
          "internalType": "uint256",
          "name": "_assetId",
          "type": "uint256"
        }
      ],
      "name": "getAssetInfo",
      "outputs": [
        {
          "internalType": "string",
          "name": "name",
          "type": "string"
        },
        {
          "internalType": "string",
          "name": "description",
          "type": "string"
        },
        {
          "internalType": "uint8",
          "name": "assetType",
          "type": "uint8"
        },
        {
          "internalType": "bool",
          "name": "isActive",
          "type": "bool"
        },
        {
          "internalType": "bool",
          "name": "isVerified",
          "type": "bool"
        },
        {
          "internalType": "string",
          "name": "metadataHash",
          "type": "string"
        },
        {
          "internalType": "address",
          "name": "owner",
          "type": "address"
        },
        {
          "internalType": "uint256",
          "name": "createdAt",
          "type": "uint256"
        },
        {
          "internalType": "uint256",
          "name": "updatedAt",
          "type": "uint256"
        }
      ],
      "stateMutability": "view",
      "type": "function"
    },
    {
      "inputs": [
        {
          "internalType": "uint256",
          "name": "_assetId",
          "type": "uint256"
        }
      ],
      "name": "getAssetQuantity",
      "outputs": [
        {
          "internalType": "uint256",
          "name": "",
          "type": "uint256"
        }
      ],
      "stateMutability": "view",
      "type": "function"
    },
    {
      "inputs": [
        {
          "internalType": "uint256",
          "name": "_assetId",
          "type": "uint256"
        }
      ],
      "name": "getAssetValue",
      "outputs": [
        {
          "internalType": "uint256",
          "name": "",
          "type": "uint256"
        }
      ],
      "stateMutability": "view",
      "type": "function"
    },
    {
      "inputs": [
        {
          "internalType": "uint256",
          "name": "_portfolioId",
          "type": "uint256"
        }
      ],
      "name": "getPortfolioAssetCount",
      "outputs": [
        {
          "internalType": "uint256",
          "name": "",
          "type": "uint256"
        }
      ],
      "stateMutability": "view",
      "type": "function"
    },
    {
      "inputs": [],
      "name": "getPortfolioCount",
      "outputs": [
        {
          "internalType": "uint256",
          "name": "",
          "type": "uint256"
        }
      ],
      "stateMutability": "view",
      "type": "function"
    },
    {
      "inputs": [
        {
          "internalType": "uint256",
          "name": "_portfolioId",
          "type": "uint256"
        }
      ],
      "name": "getPortfolioInfo",
      "outputs": [
        {
          "internalType": "string",
          "name": "name",
          "type": "string"
        },
        {
          "internalType": "string",
          "name": "description",
          "type": "string"
        },
        {
          "internalType": "bool",
          "name": "isPublic",
          "type": "bool"
        },
        {
          "internalType": "bool",
          "name": "isVerified",
          "type": "bool"
        },
        {
          "internalType": "address",
          "name": "owner",
          "type": "address"
        },
        {
          "internalType": "uint256",
          "name": "createdAt",
          "type": "uint256"
        },
        {
          "internalType": "uint256",
          "name": "updatedAt",
          "type": "uint256"
        }
      ],
      "stateMutability": "view",
      "type": "function"
    },
    {
      "inputs": [
        {
          "internalType": "uint256",
          "name": "_portfolioId",
          "type": "uint256"
        }
      ],
      "name": "getPortfolioTotalValue",
      "outputs": [
        {
          "internalType": "uint256",
          "name": "",
          "type": "uint256"
        }
      ],
      "stateMutability": "view",
      "type": "function"
    },
    {
      "inputs": [],
      "name": "getRiskAssessmentCount",
      "outputs": [
        {
          "internalType": "uint256",
          "name": "",
          "type": "uint256"
        }
      ],
      "stateMutability": "view",
      "type": "function"
    },
    {
      "inputs": [
        {
          "internalType": "uint256",
          "name": "_assessmentId",
          "type": "uint256"
        }
      ],
      "name": "getRiskAssessmentInfo",
      "outputs": [
        {
          "internalType": "bool",
          "name": "isHighRisk",
          "type": "bool"
        },
        {
          "internalType": "string",
          "name": "assessmentHash",
          "type": "string"
        },
        {
          "internalType": "address",
          "name": "assessor",
          "type": "address"
        },
        {
          "internalType": "uint256",
          "name": "timestamp",
          "type": "uint256"
        }
      ],
      "stateMutability": "view",
      "type": "function"
    },
    {
      "inputs": [
        {
          "internalType": "uint256",
          "name": "_assessmentId",
          "type": "uint256"
        }
      ],
      "name": "getRiskLiquidity",
      "outputs": [
        {
          "internalType": "uint32",
          "name": "",
          "type": "uint32"
        }
      ],
      "stateMutability": "view",
      "type": "function"
    },
    {
      "inputs": [
        {
          "internalType": "uint256",
          "name": "_assessmentId",
          "type": "uint256"
        }
      ],
      "name": "getRiskScore",
      "outputs": [
        {
          "internalType": "uint32",
          "name": "",
          "type": "uint32"
        }
      ],
      "stateMutability": "view",
      "type": "function"
    },
    {
      "inputs": [
        {
          "internalType": "uint256",
          "name": "_assessmentId",
          "type": "uint256"
        }
      ],
      "name": "getRiskVolatility",
      "outputs": [
        {
          "internalType": "uint32",
          "name": "",
          "type": "uint32"
        }
      ],
      "stateMutability": "view",
      "type": "function"
    },
    {
      "inputs": [
        {
          "internalType": "uint256",
          "name": "_transactionId",
          "type": "uint256"
        }
      ],
      "name": "getTransactionAmount",
      "outputs": [
        {
          "internalType": "uint256",
          "name": "",
          "type": "uint256"
        }
      ],
      "stateMutability": "view",
      "type": "function"
    },
    {
      "inputs": [],
      "name": "getTransactionCount",
      "outputs": [
        {
          "internalType": "uint256",
          "name": "",
          "type": "uint256"
        }
      ],
      "stateMutability": "view",
      "type": "function"
    },
    {
      "inputs": [
        {
          "internalType": "uint256",
          "name": "_transactionId",
          "type": "uint256"
        }
      ],
      "name": "getTransactionInfo",
      "outputs": [
        {
          "internalType": "uint8",
          "name": "transactionType",
          "type": "uint8"
        },
        {
          "internalType": "bool",
          "name": "isCompleted",
          "type": "bool"
        },
        {
          "internalType": "string",
          "name": "description",
          "type": "string"
        },
        {
          "internalType": "address",
          "name": "from",
          "type": "address"
        },
        {
          "internalType": "address",
          "name": "to",
          "type": "address"
        },
        {
          "internalType": "uint256",
          "name": "timestamp",
          "type": "uint256"
        }
      ],
      "stateMutability": "view",
      "type": "function"
    },
    {
      "inputs": [
        {
          "internalType": "address",
          "name": "_user",
          "type": "address"
        }
      ],
      "name": "getUserAssets",
      "outputs": [
        {
          "internalType": "uint256[]",
          "name": "",
          "type": "uint256[]"
        }
      ],
      "stateMutability": "view",
      "type": "function"
    },
    {
      "inputs": [
        {
          "internalType": "address",
          "name": "_user",
          "type": "address"
        }
      ],
      "name": "getUserBalance",
      "outputs": [
        {
          "internalType": "uint256",
          "name": "",
          "type": "uint256"
        }
      ],
      "stateMutability": "view",
      "type": "function"
    },
    {
      "inputs": [
        {
          "internalType": "address",
          "name": "_user",
          "type": "address"
        },
        {
          "internalType": "uint256",
          "name": "_assetId",
          "type": "uint256"
        }
      ],
      "name": "getUserInvestment",
      "outputs": [
        {
          "internalType": "uint256",
          "name": "amount",
          "type": "uint256"
        },
        {
          "internalType": "uint256",
          "name": "timestamp",
          "type": "uint256"
        },
        {
          "internalType": "uint256",
          "name": "apy",
          "type": "uint256"
        },
        {
          "internalType": "bool",
          "name": "isActive",
          "type": "bool"
        },
        {
          "internalType": "uint256",
          "name": "currentEarnings",
          "type": "uint256"
        }
      ],
      "stateMutability": "view",
      "type": "function"
    },
    {
      "inputs": [
        {
          "internalType": "address",
          "name": "_user",
          "type": "address"
        }
      ],
      "name": "getUserPortfolios",
      "outputs": [
        {
          "internalType": "uint256[]",
          "name": "",
          "type": "uint256[]"
        }
      ],
      "stateMutability": "view",
      "type": "function"
    },
    {
      "inputs": [
        {
          "internalType": "address",
          "name": "_user",
          "type": "address"
        }
      ],
      "name": "getUserReputation",
      "outputs": [
        {
          "internalType": "uint32",
          "name": "",
          "type": "uint32"
        }
      ],
      "stateMutability": "view",
      "type": "function"
    },
    {
      "inputs": [
        {
          "internalType": "uint256",
          "name": "_assetId",
          "type": "uint256"
        },
        {
          "internalType": "string",
          "name": "_description",
          "type": "string"
        }
      ],
      "name": "invest",
      "outputs": [
        {
          "internalType": "uint256",
          "name": "",
          "type": "uint256"
        }
      ],
      "stateMutability": "payable",
      "type": "function"
    },
    {
      "inputs": [],
      "name": "owner",
      "outputs": [
        {
          "internalType": "address",
          "name": "",
          "type": "address"
        }
      ],
      "stateMutability": "view",
      "type": "function"
    },
    {
      "inputs": [],
      "name": "portfolioCounter",
      "outputs": [
        {
          "internalType": "uint256",
          "name": "",
          "type": "uint256"
        }
      ],
      "stateMutability": "view",
      "type": "function"
    },
    {
      "inputs": [
        {
          "internalType": "uint256",
          "name": "",
          "type": "uint256"
        }
      ],
      "name": "portfolios",
      "outputs": [
        {
          "internalType": "uint32",
          "name": "portfolioId",
          "type": "uint32"
        },
        {
          "internalType": "uint256",
          "name": "totalValue",
          "type": "uint256"
        },
        {
          "internalType": "uint256",
          "name": "assetCount",
          "type": "uint256"
        },
        {
          "internalType": "bool",
          "name": "isPublic",
          "type": "bool"
        },
        {
          "internalType": "bool",
          "name": "isVerified",
          "type": "bool"
        },
        {
          "internalType": "string",
          "name": "name",
          "type": "string"
        },
        {
          "internalType": "string",
          "name": "description",
          "type": "string"
        },
        {
          "internalType": "address",
          "name": "owner",
          "type": "address"
        },
        {
          "internalType": "uint256",
          "name": "createdAt",
          "type": "uint256"
        },
        {
          "internalType": "uint256",
          "name": "updatedAt",
          "type": "uint256"
        }
      ],
      "stateMutability": "view",
      "type": "function"
    },
    {
      "inputs": [],
      "name": "riskAssessmentCounter",
      "outputs": [
        {
          "internalType": "uint256",
          "name": "",
          "type": "uint256"
        }
      ],
      "stateMutability": "view",
      "type": "function"
    },
    {
      "inputs": [
        {
          "internalType": "uint256",
          "name": "",
          "type": "uint256"
        }
      ],
      "name": "riskAssessments",
      "outputs": [
        {
          "internalType": "uint32",
          "name": "riskScore",
          "type": "uint32"
        },
        {
          "internalType": "uint32",
          "name": "volatility",
          "type": "uint32"
        },
        {
          "internalType": "uint32",
          "name": "liquidity",
          "type": "uint32"
        },
        {
          "internalType": "bool",
          "name": "isHighRisk",
          "type": "bool"
        },
        {
          "internalType": "string",
          "name": "assessmentHash",
          "type": "string"
        },
        {
          "internalType": "address",
          "name": "assessor",
          "type": "address"
        },
        {
          "internalType": "uint256",
          "name": "timestamp",
          "type": "uint256"
        }
      ],
      "stateMutability": "view",
      "type": "function"
    },
    {
      "inputs": [],
      "name": "riskAssessor",
      "outputs": [
        {
          "internalType": "address",
          "name": "",
          "type": "address"
        }
      ],
      "stateMutability": "view",
      "type": "function"
    },
    {
      "inputs": [
        {
          "internalType": "uint256",
          "name": "_assetId",
          "type": "uint256"
        },
        {
          "internalType": "uint256",
          "name": "_apy",
          "type": "uint256"
        }
      ],
      "name": "setAssetAPY",
      "outputs": [],
      "stateMutability": "nonpayable",
      "type": "function"
    },
    {
      "inputs": [],
      "name": "transactionCounter",
      "outputs": [
        {
          "internalType": "uint256",
          "name": "",
          "type": "uint256"
        }
      ],
      "stateMutability": "view",
      "type": "function"
    },
    {
      "inputs": [
        {
          "internalType": "uint256",
          "name": "",
          "type": "uint256"
        }
      ],
      "name": "transactions",
      "outputs": [
        {
          "internalType": "uint32",
          "name": "transactionId",
          "type": "uint32"
        },
        {
          "internalType": "uint256",
          "name": "amount",
          "type": "uint256"
        },
        {
          "internalType": "uint8",
          "name": "transactionType",
          "type": "uint8"
        },
        {
          "internalType": "bool",
          "name": "isCompleted",
          "type": "bool"
        },
        {
          "internalType": "string",
          "name": "description",
          "type": "string"
        },
        {
          "internalType": "address",
          "name": "from",
          "type": "address"
        },
        {
          "internalType": "address",
          "name": "to",
          "type": "address"
        },
        {
          "internalType": "uint256",
          "name": "timestamp",
          "type": "uint256"
        }
      ],
      "stateMutability": "view",
      "type": "function"
    },
    {
      "inputs": [
        {
          "internalType": "address",
          "name": "_user",
          "type": "address"
        },
        {
          "internalType": "uint32",
          "name": "reputation",
          "type": "uint32"
        }
      ],
      "name": "updateUserReputation",
      "outputs": [],
      "stateMutability": "nonpayable",
      "type": "function"
    },
    {
      "inputs": [
        {
          "internalType": "address",
          "name": "",
          "type": "address"
        },
        {
          "internalType": "uint256",
          "name": "",
          "type": "uint256"
        }
      ],
      "name": "userAssets",
      "outputs": [
        {
          "internalType": "uint256",
          "name": "",
          "type": "uint256"
        }
      ],
      "stateMutability": "view",
      "type": "function"
    },
    {
      "inputs": [
        {
          "internalType": "address",
          "name": "",
          "type": "address"
        }
      ],
      "name": "userBalance",
      "outputs": [
        {
          "internalType": "uint256",
          "name": "",
          "type": "uint256"
        }
      ],
      "stateMutability": "view",
      "type": "function"
    },
    {
      "inputs": [
        {
          "internalType": "address",
          "name": "",
          "type": "address"
        },
        {
          "internalType": "uint256",
          "name": "",
          "type": "uint256"
        }
      ],
      "name": "userInvestments",
      "outputs": [
        {
          "internalType": "uint256",
          "name": "amount",
          "type": "uint256"
        },
        {
          "internalType": "uint256",
          "name": "timestamp",
          "type": "uint256"
        },
        {
          "internalType": "uint256",
          "name": "apy",
          "type": "uint256"
        },
        {
          "internalType": "bool",
          "name": "isActive",
          "type": "bool"
        }
      ],
      "stateMutability": "view",
      "type": "function"
    },
    {
      "inputs": [
        {
          "internalType": "address",
          "name": "",
          "type": "address"
        },
        {
          "internalType": "uint256",
          "name": "",
          "type": "uint256"
        }
      ],
      "name": "userPortfolios",
      "outputs": [
        {
          "internalType": "uint256",
          "name": "",
          "type": "uint256"
        }
      ],
      "stateMutability": "view",
      "type": "function"
    },
    {
      "inputs": [
        {
          "internalType": "address",
          "name": "",
          "type": "address"
        }
      ],
      "name": "userReputation",
      "outputs": [
        {
          "internalType": "uint32",
          "name": "",
          "type": "uint32"
        }
      ],
      "stateMutability": "view",
      "type": "function"
    },
    {
      "inputs": [],
      "name": "verifier",
      "outputs": [
        {
          "internalType": "address",
          "name": "",
          "type": "address"
        }
      ],
      "stateMutability": "view",
      "type": "function"
    },
    {
      "inputs": [
        {
          "internalType": "uint256",
          "name": "_assetId",
          "type": "uint256"
        },
        {
          "internalType": "bool",
          "name": "_isVerified",
          "type": "bool"
        }
      ],
      "name": "verifyAsset",
      "outputs": [],
      "stateMutability": "nonpayable",
      "type": "function"
    },
    {
      "inputs": [
        {
          "internalType": "uint256",
          "name": "_portfolioId",
          "type": "uint256"
        },
        {
          "internalType": "bool",
          "name": "_isVerified",
          "type": "bool"
        }
      ],
      "name": "verifyPortfolio",
      "outputs": [],
      "stateMutability": "nonpayable",
      "type": "function"
    },
    {
      "inputs": [
        {
          "internalType": "uint256",
          "name": "_assetId",
          "type": "uint256"
        }
      ],
      "name": "withdrawInvestment",
      "outputs": [
        {
          "internalType": "uint256",
          "name": "",
          "type": "uint256"
        }
      ],
      "stateMutability": "nonpayable",
      "type": "function"
    }
  ],
  "bytecode": "0x608060405234801562000010575f80fd5b5060405162003a3438038062003a3483398101604081905262000033916200008c565b600e80546001600160a01b03199081163317909155600f80546001600160a01b0394851690831617905560108054929093169116179055620000c2565b80516001600160a01b038116811462000087575f80fd5b919050565b5f80604083850312156200009e575f80fd5b620000a98362000070565b9150620000b96020840162000070565b90509250929050565b61396480620000d05f395ff3fe6080604052600436106102be575f3560e01c80637a3dcd6b1161016f578063a0aead4d116100d8578063c6b97b5a11610092578063d7aa82731161006d578063d7aa8273146109ff578063e503bb0514610a30578063f637d95014610a61578063fec9cd1f14610a95575f80fd5b8063c6b97b5a1461095e578063cf35bdd01461098f578063d0420ca5146109c6575f80fd5b8063a0aead4d14610872578063a95fd95214610886578063baccbfdb146108a5578063bd521786146108df578063c3c6a23b1461090d578063c5fb3a081461093f575f80fd5b80638dec7f94116101295780638dec7f94146107725780638f3381a5146107865780639244adcd1461079b57806392eb9c0c1461080b57806394dc72c6146108205780639ace38c21461083f575f80fd5b80637a3dcd6b146106995780637fe2cb5a146106b857806380179912146106d7578063852b7bb1146107065780638be9239c146107345780638da5cb5b14610753575f80fd5b8063303d9d631161022b578063403373aa116101e557806353d1f1bb116101c057806353d1f1bb1461060e5780636a8a69aa1461063c5780636ab36bfd1461065b578063765ff0611461067a575f80fd5b8063403373aa1461059a57806347734892146105c55780634b918786146105f9575f80fd5b8063303d9d631461045f57806332f258271461049157806334c7e244146104da578063367ca914146104f957806337420e9e1461052e578063389432fa1461057b575f80fd5b80631682cca01161027c5780631682cca0146103ba5780631a5eba21146103ce5780632037fcbf146103e1578063298a4fb1146104005780632b7ac3f31461042c5780632e7700f01461044b575f80fd5b8062d9d6a4146102c25780630103c92b146102e3578063020d39a41461032157806305c12a461461034057806310c327821461036e57806314e887e8146103a5575b5f80fd5b3480156102cd575f80fd5b506102e16102dc366004612f8b565b610ac4565b005b3480156102ee575f80fd5b5061030e6102fd366004612fc6565b60056020525f908152604090205481565b6040519081526020015b60405180910390f35b34801561032c575f80fd5b5061030e61033b366004613096565b610b9f565b34801561034b575f80fd5b5061030e61035a36600461310a565b5f9081526020819052604090206001015490565b348015610379575f80fd5b5060105461038d906001600160a01b031681565b6040516001600160a01b039091168152602001610318565b3480156103b0575f80fd5b5061030e600c5481565b3480156103c5575f80fd5b50600b5461030e565b61030e6103dc366004613121565b610d99565b3480156103ec575f80fd5b5061030e6103fb36600461310a565b61116b565b34801561040b575f80fd5b5061041f61041a366004612fc6565b6113cc565b6040516103189190613165565b348015610437575f80fd5b50600f5461038d906001600160a01b031681565b348015610456575f80fd5b50600c5461030e565b34801561046a575f80fd5b5061047e61047936600461310a565b611435565b60405161031897969594939291906131eb565b34801561049c575f80fd5b506104b06104ab366004613242565b611518565b6040805195865260208601949094529284019190915215156060830152608082015260a001610318565b3480156104e5575f80fd5b506102e16104f436600461326a565b6115a5565b348015610504575f80fd5b5061051861051336600461310a565b6116be565b6040516103189a9998979695949392919061329b565b348015610539575f80fd5b5061056661054836600461310a565b5f90815260036020526040902054600160401b900463ffffffff1690565b60405163ffffffff9091168152602001610318565b348015610586575f80fd5b5061030e610595366004613327565b611835565b3480156105a5575f80fd5b5061030e6105b436600461310a565b60096020525f908152604090205481565b3480156105d0575f80fd5b5061030e6105df366004612fc6565b6001600160a01b03165f9081526005602052604090205490565b348015610604575f80fd5b5061030e600a5481565b348015610619575f80fd5b5061030e61062836600461310a565b5f9081526002602052604090206001015490565b348015610647575f80fd5b5061030e610656366004613242565b611a1e565b348015610666575f80fd5b5061030e6106753660046133a6565b611a49565b348015610685575f80fd5b5061041f610694366004612fc6565b611d8f565b3480156106a4575f80fd5b506102e16106b336600461344a565b611df6565b3480156106c3575f80fd5b506102e16106d236600461344a565b611ee9565b3480156106e2575f80fd5b506106f66106f136600461310a565b612011565b604051610318949392919061346b565b348015610711575f80fd5b5061030e61072036600461310a565b5f9081526020819052604090206002015490565b34801561073f575f80fd5b5061030e61074e366004613242565b6120ec565b34801561075e575f80fd5b50600e5461038d906001600160a01b031681565b34801561077d575f80fd5b50600d5461030e565b348015610791575f80fd5b5061030e600d5481565b3480156107a6575f80fd5b506107e96107b5366004613242565b600860209081525f928352604080842090915290825290208054600182015460028301546003909301549192909160ff1684565b6040805194855260208501939093529183015215156060820152608001610318565b348015610816575f80fd5b5061030e600b5481565b34801561082b575f80fd5b5061030e61083a3660046134a1565b612105565b34801561084a575f80fd5b5061085e61085936600461310a565b612535565b6040516103189897969594939291906134d3565b34801561087d575f80fd5b50600a5461030e565b348015610891575f80fd5b5061030e6108a0366004613242565b61261a565b3480156108b0575f80fd5b506105666108bf366004612fc6565b6001600160a01b03165f9081526004602052604090205463ffffffff1690565b3480156108ea575f80fd5b5061030e6108f936600461310a565b5f9081526001602052604090206002015490565b348015610918575f80fd5b5061092c61092736600461310a565b6126dd565b6040516103189796959493929190613531565b34801561094a575f80fd5b506102e1610959366004613589565b612863565b348015610969575f80fd5b5061056661097836600461310a565b5f9081526003602052604090205463ffffffff1690565b34801561099a575f80fd5b506109ae6109a936600461310a565b612a65565b6040516103189c9b9a999897969594939291906135b2565b3480156109d1575f80fd5b506105666109e036600461310a565b5f90815260036020526040902054640100000000900463ffffffff1690565b348015610a0a575f80fd5b50610a1e610a1936600461310a565b612c6f565b6040516103189695949392919061365a565b348015610a3b575f80fd5b50610566610a4a366004612fc6565b60046020525f908152604090205463ffffffff1681565b348015610a6c575f80fd5b50610a80610a7b36600461310a565b612d63565b604051610318999897969594939291906136a2565b348015610aa0575f80fd5b5061030e610aaf36600461310a565b5f908152600160208190526040909120015490565b5f828152602081905260409020600701546001600160a01b03163314610b315760405162461bcd60e51b815260206004820152601c60248201527f4f6e6c79206173736574206f776e65722063616e20736574204150590000000060448201526064015b60405180910390fd5b5f81118015610b4257506127108111155b610b8e5760405162461bcd60e51b815260206004820152601e60248201527f415059206d757374206265206265747765656e203020616e64203130302500006044820152606401610b28565b5f9182526009602052604090912055565b6010545f906001600160a01b03163314610c065760405162461bcd60e51b815260206004820152602260248201527f4f6e6c79207269736b206173736573736f722063616e20617373657373207269604482015261736b60f01b6064820152608401610b28565b5f868152602081905260409020600701546001600160a01b0316610c3c5760405162461bcd60e51b8152600401610b2890613722565b600d80545f9182610c4c83613764565b909155506040805160e08101825263ffffffff808a1680835289821660208085019182528a8416858701908152604690931160608601818152608087018c81523360a08901524260c08901525f8a8152600390945297909220865181549451955193511515600160601b0260ff60601b19948816600160401b02949094166cffffffffff0000000000000000199688166401000000000267ffffffffffffffff199096169190971617939093179390931693909317929092178255925193945091929091906001820190610d209082613800565b5060a08201516002820180546001600160a01b0319166001600160a01b0390921691909117905560c09091015160039091015560405163ffffffff8816815288907f4e32d0f8cb6a843a2f85ec94054d846a94b83942db34957b9029c2c438c6edda9060200160405180910390a2509695505050505050565b5f828152602081905260408120600701546001600160a01b0316610dcf5760405162461bcd60e51b8152600401610b2890613722565b5f83815260208190526040902060030154610100900460ff16610e2a5760405162461bcd60e51b81526020600482015260136024820152724173736574206973206e6f742061637469766560681b6044820152606401610b28565b5f3411610e8a5760405162461bcd60e51b815260206004820152602860248201527f496e766573746d656e7420616d6f756e74206d75737420626520677265617465604482015267072207468616e20360c41b6064820152608401610b28565b600c80545f9182610e9a83613764565b9091555060408051610100808201835263ffffffff80851683523460208085019182525f858701818152600160608801818152608089018e81523360a08b01528f85528486528a8520600701546001600160a01b031660c08b01524260e08b01528b85526002958690529990932088518154971663ffffffff19909716969096178655935193850193909355915190830180549251151590940261ffff1990921660ff9190911617179091559151929350916003820190610f5b9082613800565b5060a08201516004820180546001600160a01b039283166001600160a01b03199182161790915560c084015160058401805491909316911617905560e090910151600690910155335f908152600860209081526040808320878452909152812080549091036110635760405180608001604052803481526020014281526020015f60095f8981526020019081526020015f205411610ffb5761035261100a565b5f878152600960205260409020545b815260016020918201819052335f9081526008835260408082208a835284529081902084518155928401519183019190915582015160028201556060909101516003909101805460ff1916911515919091179055611098565b5f61106e338761261a565b905061107a81346138c0565b825f015f82825461108b91906138c0565b9091555050426001830155505b5f85815260208190526040812060010180543492906110b89084906138c0565b90915550505f858152602081815260408083204260099182015582529182902054825134815291820152869133917f31cd8a3fe169cfff51ef703af8de4ec23e1831a178101deb1fbb931a4ddda4be910160405180910390a35f858152602081815260408083206007015490519283526001600160a01b031691339185917f6d75e07ffe04210a66c1ea559b4c71f4e8b9247f06ddc5ece8b7f7fbf9c77a35910160405180910390a45090505b92915050565b335f9081526008602090815260408083208484529091528120600381015460ff166111d85760405162461bcd60e51b815260206004820152601a60248201527f4e6f2061637469766520696e766573746d656e7420666f756e640000000000006044820152606401610b28565b80546112265760405162461bcd60e51b815260206004820152601960248201527f4e6f20696e766573746d656e7420746f207769746864726177000000000000006044820152606401610b28565b5f611231338561261a565b90505f81835f015461124391906138c0565b9050804710156112955760405162461bcd60e51b815260206004820152601d60248201527f496e73756666696369656e7420636f6e74726163742062616c616e63650000006044820152606401610b28565b60038301805460ff1916905582545f808555868152602081905260409020600101548111156112c4575f6112e0565b5f868152602081905260409020600101546112e09082906138d3565b5f878152602081905260408082206001810193909355426009909301929092559051339084908381818185875af1925050503d805f811461133c576040519150601f19603f3d011682016040523d82523d5f602084013e611341565b606091505b50509050806113845760405162461bcd60e51b815260206004820152600f60248201526e151c985b9cd9995c8819985a5b1959608a1b6044820152606401610b28565b6040805183815260208101869052889133917f8c9adee18eb8a5371d1cae97b935432131bc1b6e9cd96621ca0cfd0103294192910160405180910390a3509095945050505050565b6001600160a01b0381165f9081526007602090815260409182902080548351818402810184019094528084526060939283018282801561142957602002820191905f5260205f20905b815481526020019060010190808311611415575b50505050509050919050565b60036020525f90815260409020805460018201805463ffffffff808416946401000000008504821694600160401b810490921693600160601b90920460ff16929091906114819061377c565b80601f01602080910402602001604051908101604052809291908181526020018280546114ad9061377c565b80156114f85780601f106114cf576101008083540402835291602001916114f8565b820191905f5260205f20905b8154815290600101906020018083116114db57829003601f168201915b50505050600283015460039093015491926001600160a01b031691905087565b6001600160a01b0382165f90815260086020908152604080832084845282528083208151608081018352815481526001820154938101939093526002810154918301919091526003015460ff161515606082015281908190819081908161157f898961261a565b825160208401516040850151606090950151919c909b5093995097509550909350505050565b600f546001600160a01b0316331461160b5760405162461bcd60e51b815260206004820152602360248201527f4f6e6c792076657269666965722063616e20757064617465207265707574617460448201526234b7b760e91b6064820152608401610b28565b6001600160a01b0382166116585760405162461bcd60e51b8152602060048201526014602482015273496e76616c69642075736572206164647265737360601b6044820152606401610b28565b6001600160a01b0382165f81815260046020908152604091829020805463ffffffff191663ffffffff861690811790915591519182527fbc29a8e6655836a9c09ee2d874d0ec6df064e0b7d9d9dd0f097ad3f2874ed98691015b60405180910390a25050565b600160208190525f91825260409091208054918101546002820154600383015460048401805463ffffffff909616959394929360ff808416946101009094041692919061170a9061377c565b80601f01602080910402602001604051908101604052809291908181526020018280546117369061377c565b80156117815780601f1061175857610100808354040283529160200191611781565b820191905f5260205f20905b81548152906001019060200180831161176457829003601f168201915b5050505050908060050180546117969061377c565b80601f01602080910402602001604051908101604052809291908181526020018280546117c29061377c565b801561180d5780601f106117e45761010080835404028352916020019161180d565b820191905f5260205f20905b8154815290600101906020018083116117f057829003601f168201915b505050506006830154600784015460089094015492936001600160a01b03909116929091508a565b5f808451116118865760405162461bcd60e51b815260206004820152601e60248201527f506f7274666f6c696f206e616d652063616e6e6f7420626520656d70747900006044820152606401610b28565b600b80545f918261189683613764565b90915550604080516101408101825263ffffffff83811682525f60208084018281528486018381528a1515606087019081526080870185815260a088018f815260c089018f90523360e08a015242610100808b018290526101208b01919091528b8852600196879052999096208851815463ffffffff191698169790971787559251938601939093555160028501559051600384018054925161ffff1990931691151561ff001916919091179115159095021790935591519293509160048201906119619082613800565b5060c082015160058201906119769082613800565b5060e08201516006820180546001600160a01b0319166001600160a01b0390921691909117905561010082015160078083019190915561012090920151600890910155335f81815260209283526040808220805460018101825590835293909120909201839055905182907fd535c77531ee1dc5cd7bf2ca22ac8deaa8dbb95b4952775df7b2fc595da09dd890611a0e9089906138e6565b60405180910390a3949350505050565b6006602052815f5260405f208181548110611a37575f80fd5b905f5260205f20015f91509150505481565b5f80875111611a9a5760405162461bcd60e51b815260206004820152601a60248201527f4173736574206e616d652063616e6e6f7420626520656d7074790000000000006044820152606401610b28565b5f8511611ae95760405162461bcd60e51b815260206004820152601c60248201527f41737365742076616c7565206d75737420626520706f736974697665000000006044820152606401610b28565b5f8411611b385760405162461bcd60e51b815260206004820152601f60248201527f4173736574207175616e74697479206d75737420626520706f736974697665006044820152606401610b28565b60048360ff161115611b815760405162461bcd60e51b8152602060048201526012602482015271496e76616c6964206173736574207479706560701b6044820152606401610b28565b600a80545f9182611b9183613764565b9190505590506040518061018001604052808263ffffffff1681526020018781526020018681526020018560ff1681526020016001151581526020015f15158152602001898152602001888152602001848152602001336001600160a01b03168152602001428152602001428152505f808381526020019081526020015f205f820151815f015f6101000a81548163ffffffff021916908363ffffffff16021790555060208201518160010155604082015181600201556060820151816003015f6101000a81548160ff021916908360ff16021790555060808201518160030160016101000a81548160ff02191690831515021790555060a08201518160030160026101000a81548160ff02191690831515021790555060c0820151816004019081611cbd9190613800565b5060e08201516005820190611cd29082613800565b506101008201516006820190611ce89082613800565b506101208201516007820180546001600160a01b0319166001600160a01b03909216919091179055610140820151600882015561016090910151600990910155335f818152600660209081526040808320805460018101825590845291909220018390555182907f49b4e4c6879cdc85b51d8c3b572252aaa7842edb863810854acb6d2ed420d96290611d7c908c906138e6565b60405180910390a3979650505050505050565b6001600160a01b0381165f9081526006602090815260409182902080548351818402810184019094528084526060939283018282801561142957602002820191905f5260205f20908154815260200190600101908083116114155750505050509050919050565b600f546001600160a01b03163314611e505760405162461bcd60e51b815260206004820152601f60248201527f4f6e6c792076657269666965722063616e2076657269667920617373657473006044820152606401610b28565b5f828152602081905260409020600701546001600160a01b0316611e865760405162461bcd60e51b8152600401610b2890613722565b5f8281526020819052604090819020600381018054841515620100000262ff000019909116179055426009909101555182907ff1001df2cb02ac9e9d458688b16fc1a3e17637af02e91372e3d6e806ab9c62de906116b290841515815260200190565b600f546001600160a01b03163314611f4f5760405162461bcd60e51b815260206004820152602360248201527f4f6e6c792076657269666965722063616e2076657269667920706f7274666f6c604482015262696f7360e81b6064820152608401610b28565b5f828152600160205260409020600601546001600160a01b0316611fb05760405162461bcd60e51b8152602060048201526018602482015277141bdc9d199bdb1a5bc8191bd95cc81b9bdd08195e1a5cdd60421b6044820152606401610b28565b5f82815260016020526040908190206003810180548415156101000261ff0019909116179055426008909101555182907fc1e43064b91f66c91fd4a63b612a7c1620deba6fe84aaac4dfcbd7f456c6334d906116b290841515815260200190565b5f81815260036020819052604082208054600282015492820154600183018054606095879586959094600160601b90910460ff1693926001600160a01b0390921691839061205e9061377c565b80601f016020809104026020016040519081016040528092919081815260200182805461208a9061377c565b80156120d55780601f106120ac576101008083540402835291602001916120d5565b820191905f5260205f20905b8154815290600101906020018083116120b857829003601f168201915b505050505092509450945094509450509193509193565b6007602052815f5260405f208181548110611a37575f80fd5b5f858152602081905260408120600701546001600160a01b0316331461217e5760405162461bcd60e51b815260206004820152602860248201527f4f6e6c79206173736574206f776e65722063616e2065786563757465207472616044820152673739b0b1ba34b7b760c11b6064820152608401610b28565b60028360ff1611156121d25760405162461bcd60e51b815260206004820152601860248201527f496e76616c6964207472616e73616374696f6e207479706500000000000000006044820152606401610b28565b600c80545f91826121e283613764565b9190505590506040518061010001604052808263ffffffff1681526020018681526020018560ff168152602001600115158152602001848152602001336001600160a01b03168152602001875f0361223a575f612255565b5f888152602081905260409020600701546001600160a01b03165b6001600160a01b03168152426020918201525f83815260028083526040918290208451815463ffffffff191663ffffffff909116178155928401516001840155908301519082018054606085015160ff90931661ffff199091161761010092151592909202919091179055608082015160038201906122d49082613800565b5060a08201516004820180546001600160a01b039283166001600160a01b03199182161790915560c084015160058401805491909316911617905560e09091015160069091015560ff84165f03612350575f87815260208190526040812060010180548792906123459084906138c0565b9091555061248d9050565b8360ff166001036123d6575f878152602081905260409020600101548511156123b65760405162461bcd60e51b8152602060048201526018602482015277496e73756666696369656e742061737365742076616c756560401b6044820152606401610b28565b5f87815260208190526040812060010180548792906123459084906138d3565b8360ff1660020361248d575f8781526020819052604090206001015485111561243c5760405162461bcd60e51b8152602060048201526018602482015277496e73756666696369656e742061737365742076616c756560401b6044820152606401610b28565b5f878152602081905260408120600101805487929061245c9084906138d3565b9091555050851561248d575f86815260208190526040812060010180548792906124879084906138c0565b90915550505b5f8781526020819052604090204260099091015585156124bc575f868152602081905260409020426009909101555b855f036124c9575f6124e4565b5f868152602081905260409020600701546001600160a01b03165b60405160ff861681526001600160a01b039190911690339083907f6d75e07ffe04210a66c1ea559b4c71f4e8b9247f06ddc5ece8b7f7fbf9c77a359060200160405180910390a49695505050505050565b600260208190525f9182526040909120805460018201549282015460038301805463ffffffff909316949360ff80841694610100909404169290919061257a9061377c565b80601f01602080910402602001604051908101604052809291908181526020018280546125a69061377c565b80156125f15780601f106125c8576101008083540402835291602001916125f1565b820191905f5260205f20905b8154815290600101906020018083116125d457829003601f168201915b505050506004830154600584015460069094015492936001600160a01b03918216939116915088565b6001600160a01b0382165f90815260086020908152604080832084845282528083208151608081018352815481526001820154938101939093526002810154918301919091526003015460ff1615801560608301528061267957508051155b15612687575f915050611165565b5f81602001514261269891906138d3565b90506301e133805f6126ac826127106138f8565b6040850151855185916126be916138f8565b6126c891906138f8565b6126d2919061390f565b979650505050505050565b5f81815260016020526040812060038101546006820154600783015460088401546004850180546060978897909687968796879687969495600587019460ff8082169561010090920416936001600160a01b0390911692909187906127419061377c565b80601f016020809104026020016040519081016040528092919081815260200182805461276d9061377c565b80156127b85780601f1061278f576101008083540402835291602001916127b8565b820191905f5260205f20905b81548152906001019060200180831161279b57829003601f168201915b505050505096508580546127cb9061377c565b80601f01602080910402602001604051908101604052809291908181526020018280546127f79061377c565b80156128425780601f1061281957610100808354040283529160200191612842565b820191905f5260205f20905b81548152906001019060200180831161282557829003601f168201915b50505050509550975097509750975097509750975050919395979092949650565b5f838152600160205260409020600601546001600160a01b031633146128d75760405162461bcd60e51b815260206004820152602360248201527f4f6e6c7920706f7274666f6c696f206f776e65722063616e206164642061737360448201526265747360e81b6064820152608401610b28565b5f828152602081905260409020600701546001600160a01b0316331461294d5760405162461bcd60e51b815260206004820152602560248201527f4f6e6c79206173736574206f776e65722063616e2061646420746f20706f7274604482015264666f6c696f60d81b6064820152608401610b28565b5f838152600160205260409020600601546001600160a01b03166129ae5760405162461bcd60e51b8152602060048201526018602482015277141bdc9d199bdb1a5bc8191bd95cc81b9bdd08195e1a5cdd60421b6044820152606401610b28565b5f828152602081905260409020600701546001600160a01b03166129e45760405162461bcd60e51b8152600401610b2890613722565b6001805f8581526020019081526020015f206002015f828254612a0791906138c0565b90915550505f82815260208190526040902060010154612a289082906138f8565b5f8481526001602081905260408220018054909190612a489084906138c0565b9091555050505f9182525060016020526040902042600890910155565b5f602081905290815260409020805460018201546002830154600384015460048501805463ffffffff909516959394929360ff8084169461010085048216946201000090049091169290612ab89061377c565b80601f0160208091040260200160405190810160405280929190818152602001828054612ae49061377c565b8015612b2f5780601f10612b0657610100808354040283529160200191612b2f565b820191905f5260205f20905b815481529060010190602001808311612b1257829003601f168201915b505050505090806005018054612b449061377c565b80601f0160208091040260200160405190810160405280929190818152602001828054612b709061377c565b8015612bbb5780601f10612b9257610100808354040283529160200191612bbb565b820191905f5260205f20905b815481529060010190602001808311612b9e57829003601f168201915b505050505090806006018054612bd09061377c565b80601f0160208091040260200160405190810160405280929190818152602001828054612bfc9061377c565b8015612c475780601f10612c1e57610100808354040283529160200191612c47565b820191905f5260205f20905b815481529060010190602001808311612c2a57829003601f168201915b505050506007830154600884015460099094015492936001600160a01b03909116929091508c565b5f8181526002602081905260408220908101546004820154600583015460068401546003850180548796606096889687968796939560ff80851696610100909504169490936001600160a01b0393841693909216918490612ccf9061377c565b80601f0160208091040260200160405190810160405280929190818152602001828054612cfb9061377c565b8015612d465780601f10612d1d57610100808354040283529160200191612d46565b820191905f5260205f20905b815481529060010190602001808311612d2957829003601f168201915b505050505093509650965096509650965096505091939550919395565b5f818152602081905260408120600381015460078201546008830154600984015460048501805460609788979096879687968a96889687968796959194600587019460ff8085169561010086048216956201000090049091169360068a01936001600160a01b03169291908990612dd99061377c565b80601f0160208091040260200160405190810160405280929190818152602001828054612e059061377c565b8015612e505780601f10612e2757610100808354040283529160200191612e50565b820191905f5260205f20905b815481529060010190602001808311612e3357829003601f168201915b50505050509850878054612e639061377c565b80601f0160208091040260200160405190810160405280929190818152602001828054612e8f9061377c565b8015612eda5780601f10612eb157610100808354040283529160200191612eda565b820191905f5260205f20905b815481529060010190602001808311612ebd57829003601f168201915b50505050509750838054612eed9061377c565b80601f0160208091040260200160405190810160405280929190818152602001828054612f199061377c565b8015612f645780601f10612f3b57610100808354040283529160200191612f64565b820191905f5260205f20905b815481529060010190602001808311612f4757829003601f168201915b50505050509350995099509950995099509950995099509950509193959799909294969850565b5f8060408385031215612f9c575f80fd5b50508035926020909101359150565b80356001600160a01b0381168114612fc1575f80fd5b919050565b5f60208284031215612fd6575f80fd5b612fdf82612fab565b9392505050565b803563ffffffff81168114612fc1575f80fd5b634e487b7160e01b5f52604160045260245ffd5b5f82601f83011261301c575f80fd5b813567ffffffffffffffff8082111561303757613037612ff9565b604051601f8301601f19908116603f0116810190828211818310171561305f5761305f612ff9565b81604052838152866020858801011115613077575f80fd5b836020870160208301375f602085830101528094505050505092915050565b5f805f805f60a086880312156130aa575f80fd5b853594506130ba60208701612fe6565b93506130c860408701612fe6565b92506130d660608701612fe6565b9150608086013567ffffffffffffffff8111156130f1575f80fd5b6130fd8882890161300d565b9150509295509295909350565b5f6020828403121561311a575f80fd5b5035919050565b5f8060408385031215613132575f80fd5b82359150602083013567ffffffffffffffff81111561314f575f80fd5b61315b8582860161300d565b9150509250929050565b602080825282518282018190525f9190848201906040850190845b8181101561319c57835183529284019291840191600101613180565b50909695505050505050565b5f81518084525f5b818110156131cc576020818501810151868301820152016131b0565b505f602082860101526020601f19601f83011685010191505092915050565b5f63ffffffff808a1683528089166020840152808816604084015250851515606083015260e0608083015261322360e08301866131a8565b6001600160a01b039490941660a08301525060c0015295945050505050565b5f8060408385031215613253575f80fd5b61325c83612fab565b946020939093013593505050565b5f806040838503121561327b575f80fd5b61328483612fab565b915061329260208401612fe6565b90509250929050565b5f61014063ffffffff8d1683528b60208401528a6040840152891515606084015288151560808401528060a08401526132d6818401896131a8565b905082810360c08401526132ea81886131a8565b6001600160a01b039690961660e0840152505061010081019290925261012090910152979650505050505050565b80358015158114612fc1575f80fd5b5f805f60608486031215613339575f80fd5b833567ffffffffffffffff80821115613350575f80fd5b61335c8783880161300d565b94506020860135915080821115613371575f80fd5b5061337e8682870161300d565b92505061338d60408501613318565b90509250925092565b803560ff81168114612fc1575f80fd5b5f805f805f8060c087890312156133bb575f80fd5b863567ffffffffffffffff808211156133d2575f80fd5b6133de8a838b0161300d565b975060208901359150808211156133f3575f80fd5b6133ff8a838b0161300d565b9650604089013595506060890135945061341b60808a01613396565b935060a0890135915080821115613430575f80fd5b5061343d89828a0161300d565b9150509295509295509295565b5f806040838503121561345b575f80fd5b8235915061329260208401613318565b8415158152608060208201525f61348560808301866131a8565b6001600160a01b03949094166040830152506060015292915050565b5f805f805f60a086880312156134b5575f80fd5b8535945060208601359350604086013592506130d660608701613396565b5f61010063ffffffff8b16835289602084015260ff891660408401528715156060840152806080840152613509818401886131a8565b6001600160a01b0396871660a08501529490951660c08301525060e001529695505050505050565b60e081525f61354360e083018a6131a8565b8281036020840152613555818a6131a8565b9715156040840152505093151560608501526001600160a01b0392909216608084015260a083015260c09091015292915050565b5f805f6060848603121561359b575f80fd5b505081359360208301359350604090920135919050565b5f61018063ffffffff8f1683528d60208401528c604084015260ff8c1660608401528a151560808401526135ea60a084018b15159052565b8060c08401526135fc8184018a6131a8565b905082810360e084015261361081896131a8565b905082810361010084015261362581886131a8565b91505061363e6101208301866001600160a01b03169052565b61014082019390935261016001529a9950505050505050505050565b60ff87168152851515602082015260c060408201525f61367d60c08301876131a8565b6001600160a01b03958616606084015293909416608082015260a00152949350505050565b5f6101208083526136b58184018d6131a8565b905082810360208401526136c9818c6131a8565b905060ff8a1660408401528815156060840152871515608084015282810360a08401526136f681886131a8565b6001600160a01b039690961660c0840152505060e0810192909252610100909101529695505050505050565b602080825260149082015273105cdcd95d08191bd95cc81b9bdd08195e1a5cdd60621b604082015260600190565b634e487b7160e01b5f52601160045260245ffd5b5f6001820161377557613775613750565b5060010190565b600181811c9082168061379057607f821691505b6020821081036137ae57634e487b7160e01b5f52602260045260245ffd5b50919050565b601f8211156137fb57805f5260205f20601f840160051c810160208510156137d95750805b601f840160051c820191505b818110156137f8575f81556001016137e5565b50505b505050565b815167ffffffffffffffff81111561381a5761381a612ff9565b61382e81613828845461377c565b846137b4565b602080601f831160018114613861575f841561384a5750858301515b5f19600386901b1c1916600185901b1785556138b8565b5f85815260208120601f198616915b8281101561388f57888601518255948401946001909101908401613870565b50858210156138ac57878501515f19600388901b60f8161c191681555b505060018460011b0185555b505050505050565b8082018082111561116557611165613750565b8181038181111561116557611165613750565b602081525f612fdf60208301846131a8565b808202811582820484141761116557611165613750565b5f8261392957634e487b7160e01b5f52601260045260245ffd5b50049056fea26469706673582212209b2a9ee1f77d1e73492e5a655d4b776df9f38d323ccd1316a782e0059f3126bf64736f6c63430008180033",
  "linkReferences": {},
  "deployedLinkReferences": {},
  "immutableReferences": {},
  "inputSourceName": "project/contracts/VaultAssetShield.sol",
  "buildInfoId": "solc-0_8_24-a14740dec111b18a7e086b1c7bd598eb198cff8a"
}